{
  "address": "0x00968e7Bc3398df8A915FeEB7FCc3d073e52d653",
  "abi": [
    {
      "inputs": [],
      "stateMutability": "nonpayable",
      "type": "constructor"
    },
    {
      "inputs": [],
      "name": "BuyMeACoffee__TipTooLow",
      "type": "error"
    },
    {
      "inputs": [],
      "name": "MINIMUM_TIP_USD",
      "outputs": [
        {
          "internalType": "uint256",
          "name": "",
          "type": "uint256"
        }
      ],
      "stateMutability": "view",
      "type": "function"
    },
    {
      "inputs": [],
      "name": "buyCoffee",
      "outputs": [],
      "stateMutability": "payable",
      "type": "function"
    },
    {
      "inputs": [],
      "name": "getContractBalance",
      "outputs": [
        {
          "internalType": "uint256",
          "name": "",
          "type": "uint256"
        }
      ],
      "stateMutability": "view",
      "type": "function"
    },
    {
      "inputs": [],
      "name": "getOwner",
      "outputs": [
        {
          "internalType": "address",
          "name": "",
          "type": "address"
        }
      ],
      "stateMutability": "view",
      "type": "function"
    },
    {
      "inputs": [],
      "name": "i_owner",
      "outputs": [
        {
          "internalType": "address",
          "name": "",
          "type": "address"
        }
      ],
      "stateMutability": "view",
      "type": "function"
    },
    {
      "inputs": [],
      "name": "withdrawTips",
      "outputs": [],
      "stateMutability": "nonpayable",
      "type": "function"
    }
  ],
  "transactionHash": "0xc764595d15c167de054f5675c47a1a17885941787adf93d8d20db2664fcb8ce8",
  "args": [],
  "numDeployments": 1,
  "solcInputHash": "3ee445a46d6393b4a2c3b64f3fb8204d",
  "bytecode": "0x60a060405234801561001057600080fd5b503373ffffffffffffffffffffffffffffffffffffffff1660808173ffffffffffffffffffffffffffffffffffffffff1660601b8152505060805160601c61050e61007b6000396000818161012e015281816101be0152818161029501526102f7015261050e6000f3fe6080604052600436106100555760003560e01c806338c7043b1461005a5780633aaa74b2146100855780636f9fb98a1461009c578063893d20e8146100c7578063bf165d18146100f2578063dba6335f146100fc575b600080fd5b34801561006657600080fd5b5061006f610127565b60405161007c9190610410565b60405180910390f35b34801561009157600080fd5b5061009a61012c565b005b3480156100a857600080fd5b506100b1610289565b6040516100be9190610410565b60405180910390f35b3480156100d357600080fd5b506100dc610291565b6040516100e991906103b5565b60405180910390f35b6100fa6102b9565b005b34801561010857600080fd5b506101116102f5565b60405161011e91906103b5565b60405180910390f35b600581565b7f000000000000000000000000000000000000000000000000000000000000000073ffffffffffffffffffffffffffffffffffffffff163373ffffffffffffffffffffffffffffffffffffffff16146101ba576040517f08c379a00000000000000000000000000000000000000000000000000000000081526004016101b1906103d0565b60405180910390fd5b60007f000000000000000000000000000000000000000000000000000000000000000073ffffffffffffffffffffffffffffffffffffffff1647604051610200906103a0565b60006040518083038185875af1925050503d806000811461023d576040519150601f19603f3d011682016040523d82523d6000602084013e610242565b606091505b5050905080610286576040517f08c379a000000000000000000000000000000000000000000000000000000000815260040161027d906103f0565b60405180910390fd5b50565b600047905090565b60007f0000000000000000000000000000000000000000000000000000000000000000905090565b600534116102f3576040517f5081c3d400000000000000000000000000000000000000000000000000000000815260040160405180910390fd5b565b7f000000000000000000000000000000000000000000000000000000000000000081565b61032281610447565b82525050565b6000610335601783610436565b915061034082610483565b602082019050919050565b600061035860008361042b565b9150610363826104ac565b600082019050919050565b600061037b601183610436565b9150610386826104af565b602082019050919050565b61039a81610479565b82525050565b60006103ab8261034b565b9150819050919050565b60006020820190506103ca6000830184610319565b92915050565b600060208201905081810360008301526103e981610328565b9050919050565b600060208201905081810360008301526104098161036e565b9050919050565b60006020820190506104256000830184610391565b92915050565b600081905092915050565b600082825260208201905092915050565b600061045282610459565b9050919050565b600073ffffffffffffffffffffffffffffffffffffffff82169050919050565b6000819050919050565b7f43616c6c6572206973206e6f7420746865206f776e6572000000000000000000600082015250565b50565b7f5769746864726177616c206661696c656400000000000000000000000000000060008201525056fea2646970667358221220626262f655769c5b2392b18518d5e2f0d5907d942f3b495ffb8ccd4444c8f17364736f6c63430008070033",
  "devdoc": {
    "kind": "dev",
    "methods": {},
    "version": 1
  },
  "userdoc": {
    "kind": "user",
    "methods": {},
    "version": 1
  },
  "storageLayout": {
    "storage": [],
    "types": null
  }
}