{
  "address": "0xb4411eb693e377D6274f22d6b1c18Da0f64d7E34",
  "abi": [
    {
      "inputs": [],
      "stateMutability": "nonpayable",
      "type": "constructor"
    },
    {
      "inputs": [],
      "name": "BuyMeACoffee__TipTooLow",
      "type": "error"
    },
    {
      "anonymous": false,
      "inputs": [
        {
          "indexed": false,
          "internalType": "uint256",
          "name": "_tip",
          "type": "uint256"
        },
        {
          "indexed": false,
          "internalType": "string",
          "name": "_message",
          "type": "string"
        },
        {
          "indexed": false,
          "internalType": "address",
          "name": "_from",
          "type": "address"
        }
      ],
      "name": "TipReceived",
      "type": "event"
    },
    {
      "inputs": [],
      "name": "MINIMUM_TIP_USD",
      "outputs": [
        {
          "internalType": "uint256",
          "name": "",
          "type": "uint256"
        }
      ],
      "stateMutability": "view",
      "type": "function"
    },
    {
      "inputs": [
        {
          "internalType": "string",
          "name": "_message",
          "type": "string"
        }
      ],
      "name": "buyCoffee",
      "outputs": [],
      "stateMutability": "payable",
      "type": "function"
    },
    {
      "inputs": [],
      "name": "getContractBalance",
      "outputs": [
        {
          "internalType": "uint256",
          "name": "",
          "type": "uint256"
        }
      ],
      "stateMutability": "view",
      "type": "function"
    },
    {
      "inputs": [],
      "name": "getLatestFiveTips",
      "outputs": [
        {
          "components": [
            {
              "internalType": "uint256",
              "name": "tip",
              "type": "uint256"
            },
            {
              "internalType": "string",
              "name": "message",
              "type": "string"
            }
          ],
          "internalType": "struct BuyMeACoffee.Tip[]",
          "name": "",
          "type": "tuple[]"
        }
      ],
      "stateMutability": "view",
      "type": "function"
    },
    {
      "inputs": [],
      "name": "getOwner",
      "outputs": [
        {
          "internalType": "address",
          "name": "",
          "type": "address"
        }
      ],
      "stateMutability": "view",
      "type": "function"
    },
    {
      "inputs": [
        {
          "internalType": "uint256",
          "name": "_index",
          "type": "uint256"
        }
      ],
      "name": "getTip",
      "outputs": [
        {
          "components": [
            {
              "internalType": "uint256",
              "name": "tip",
              "type": "uint256"
            },
            {
              "internalType": "string",
              "name": "message",
              "type": "string"
            }
          ],
          "internalType": "struct BuyMeACoffee.Tip",
          "name": "",
          "type": "tuple"
        }
      ],
      "stateMutability": "view",
      "type": "function"
    },
    {
      "inputs": [],
      "name": "i_owner",
      "outputs": [
        {
          "internalType": "address",
          "name": "",
          "type": "address"
        }
      ],
      "stateMutability": "view",
      "type": "function"
    },
    {
      "inputs": [],
      "name": "s_numberOfTips",
      "outputs": [
        {
          "internalType": "uint256",
          "name": "",
          "type": "uint256"
        }
      ],
      "stateMutability": "view",
      "type": "function"
    },
    {
      "inputs": [],
      "name": "withdrawTips",
      "outputs": [],
      "stateMutability": "nonpayable",
      "type": "function"
    }
  ],
  "transactionHash": "0xa302476ec43a376636612030953d2c4df7d4ffbb8dee9b61e92f8f0170c6f876",
  "args": [],
  "numDeployments": 2,
  "solcInputHash": "e8739aedcc1fd42d96b01e82fcb97ef5",
  "bytecode": "0x60a060405234801561001057600080fd5b503373ffffffffffffffffffffffffffffffffffffffff1660808173ffffffffffffffffffffffffffffffffffffffff1660601b8152505060805160601c61101361007b6000396000818161030b0152818161039b015281816106fd015261072301526110136000f3fe6080604052600436106100865760003560e01c806355b573981161005957806355b57398146101145780635b703f5c1461013f5780636f9fb98a1461017c578063893d20e8146101a7578063dba6335f146101d257610086565b80632b371b541461008b5780632b772705146100a757806338c7043b146100d25780633aaa74b2146100fd575b600080fd5b6100a560048036038101906100a09190610887565b6101fd565b005b3480156100b357600080fd5b506100bc6102fe565b6040516100c99190610bbc565b60405180910390f35b3480156100de57600080fd5b506100e7610304565b6040516100f49190610bbc565b60405180910390f35b34801561010957600080fd5b50610112610309565b005b34801561012057600080fd5b50610129610466565b6040516101369190610b38565b60405180910390f35b34801561014b57600080fd5b50610166600480360381019061016191906108d0565b610619565b6040516101739190610b9a565b60405180910390f35b34801561018857600080fd5b506101916106f1565b60405161019e9190610bbc565b60405180910390f35b3480156101b357600080fd5b506101bc6106f9565b6040516101c99190610b1d565b60405180910390f35b3480156101de57600080fd5b506101e7610721565b6040516101f49190610b1d565b60405180910390f35b60053411610237576040517f5081c3d400000000000000000000000000000000000000000000000000000000815260040160405180910390fd5b61023f610745565b3481600001818152505081816020018190525060008190806001815401808255809150506001900390600052602060002090600202016000909190919091506000820151816000015560208201518160010190805190602001906102a492919061075f565b505050600160008154809291906102ba90610e47565b91905055507febd56baf447d878c9edbdfa72c7d5fcf1c5680710efa3e53ac4b22e414e1ef023483336040516102f293929190610bd7565b60405180910390a15050565b60015481565b600581565b7f000000000000000000000000000000000000000000000000000000000000000073ffffffffffffffffffffffffffffffffffffffff163373ffffffffffffffffffffffffffffffffffffffff1614610397576040517f08c379a000000000000000000000000000000000000000000000000000000000815260040161038e90610b5a565b60405180910390fd5b60007f000000000000000000000000000000000000000000000000000000000000000073ffffffffffffffffffffffffffffffffffffffff16476040516103dd90610b08565b60006040518083038185875af1925050503d806000811461041a576040519150601f19603f3d011682016040523d82523d6000602084013e61041f565b606091505b5050905080610463576040517f08c379a000000000000000000000000000000000000000000000000000000000815260040161045a90610b7a565b60405180910390fd5b50565b60606000600567ffffffffffffffff81111561048557610484610f1d565b5b6040519080825280602002602001820160405280156104be57816020015b6104ab610745565b8152602001906001900390816104a35790505b50905060006005600154116104d45760006104e4565b60056001546104e39190610d32565b5b905060005b60058110156106105760015481836105019190610cdc565b1061050b57610610565b600081836105199190610cdc565b8154811061052a57610529610eee565b5b90600052602060002090600202016040518060400160405290816000820154815260200160018201805461055d90610de4565b80601f016020809104026020016040519081016040528092919081815260200182805461058990610de4565b80156105d65780601f106105ab576101008083540402835291602001916105d6565b820191906000526020600020905b8154815290600101906020018083116105b957829003601f168201915b5050505050815250508382815181106105f2576105f1610eee565b5b6020026020010181905250808061060890610e47565b9150506104e9565b50819250505090565b610621610745565b6000828154811061063557610634610eee565b5b90600052602060002090600202016040518060400160405290816000820154815260200160018201805461066890610de4565b80601f016020809104026020016040519081016040528092919081815260200182805461069490610de4565b80156106e15780601f106106b6576101008083540402835291602001916106e1565b820191906000526020600020905b8154815290600101906020018083116106c457829003601f168201915b5050505050815250509050919050565b600047905090565b60007f0000000000000000000000000000000000000000000000000000000000000000905090565b7f000000000000000000000000000000000000000000000000000000000000000081565b604051806040016040528060008152602001606081525090565b82805461076b90610de4565b90600052602060002090601f01602090048101928261078d57600085556107d4565b82601f106107a657805160ff19168380011785556107d4565b828001600101855582156107d4579182015b828111156107d35782518255916020019190600101906107b8565b5b5090506107e191906107e5565b5090565b5b808211156107fe5760008160009055506001016107e6565b5090565b600061081561081084610c3a565b610c15565b90508281526020810184848401111561083157610830610f51565b5b61083c848285610da2565b509392505050565b600082601f83011261085957610858610f4c565b5b8135610869848260208601610802565b91505092915050565b60008135905061088181610fc6565b92915050565b60006020828403121561089d5761089c610f5b565b5b600082013567ffffffffffffffff8111156108bb576108ba610f56565b5b6108c784828501610844565b91505092915050565b6000602082840312156108e6576108e5610f5b565b5b60006108f484828501610872565b91505092915050565b60006109098383610a70565b905092915050565b61091a81610d66565b82525050565b600061092b82610c7b565b6109358185610c9e565b93508360208202850161094785610c6b565b8060005b85811015610983578484038952815161096485826108fd565b945061096f83610c91565b925060208a0199505060018101905061094b565b50829750879550505050505092915050565b60006109a082610c86565b6109aa8185610cba565b93506109ba818560208601610db1565b6109c381610f60565b840191505092915050565b60006109d982610c86565b6109e38185610ccb565b93506109f3818560208601610db1565b6109fc81610f60565b840191505092915050565b6000610a14601783610ccb565b9150610a1f82610f71565b602082019050919050565b6000610a37600083610caf565b9150610a4282610f9a565b600082019050919050565b6000610a5a601183610ccb565b9150610a6582610f9d565b602082019050919050565b6000604083016000830151610a886000860182610aea565b5060208301518482036020860152610aa08282610995565b9150508091505092915050565b6000604083016000830151610ac56000860182610aea565b5060208301518482036020860152610add8282610995565b9150508091505092915050565b610af381610d98565b82525050565b610b0281610d98565b82525050565b6000610b1382610a2a565b9150819050919050565b6000602082019050610b326000830184610911565b92915050565b60006020820190508181036000830152610b528184610920565b905092915050565b60006020820190508181036000830152610b7381610a07565b9050919050565b60006020820190508181036000830152610b9381610a4d565b9050919050565b60006020820190508181036000830152610bb48184610aad565b905092915050565b6000602082019050610bd16000830184610af9565b92915050565b6000606082019050610bec6000830186610af9565b8181036020830152610bfe81856109ce565b9050610c0d6040830184610911565b949350505050565b6000610c1f610c30565b9050610c2b8282610e16565b919050565b6000604051905090565b600067ffffffffffffffff821115610c5557610c54610f1d565b5b610c5e82610f60565b9050602081019050919050565b6000819050602082019050919050565b600081519050919050565b600081519050919050565b6000602082019050919050565b600082825260208201905092915050565b600081905092915050565b600082825260208201905092915050565b600082825260208201905092915050565b6000610ce782610d98565b9150610cf283610d98565b9250827fffffffffffffffffffffffffffffffffffffffffffffffffffffffffffffffff03821115610d2757610d26610e90565b5b828201905092915050565b6000610d3d82610d98565b9150610d4883610d98565b925082821015610d5b57610d5a610e90565b5b828203905092915050565b6000610d7182610d78565b9050919050565b600073ffffffffffffffffffffffffffffffffffffffff82169050919050565b6000819050919050565b82818337600083830152505050565b60005b83811015610dcf578082015181840152602081019050610db4565b83811115610dde576000848401525b50505050565b60006002820490506001821680610dfc57607f821691505b60208210811415610e1057610e0f610ebf565b5b50919050565b610e1f82610f60565b810181811067ffffffffffffffff82111715610e3e57610e3d610f1d565b5b80604052505050565b6000610e5282610d98565b91507fffffffffffffffffffffffffffffffffffffffffffffffffffffffffffffffff821415610e8557610e84610e90565b5b600182019050919050565b7f4e487b7100000000000000000000000000000000000000000000000000000000600052601160045260246000fd5b7f4e487b7100000000000000000000000000000000000000000000000000000000600052602260045260246000fd5b7f4e487b7100000000000000000000000000000000000000000000000000000000600052603260045260246000fd5b7f4e487b7100000000000000000000000000000000000000000000000000000000600052604160045260246000fd5b600080fd5b600080fd5b600080fd5b600080fd5b6000601f19601f8301169050919050565b7f43616c6c6572206973206e6f7420746865206f776e6572000000000000000000600082015250565b50565b7f5769746864726177616c206661696c6564000000000000000000000000000000600082015250565b610fcf81610d98565b8114610fda57600080fd5b5056fea26469706673582212203292b38de93cc3b7ad47a85ccbccc90d2e9d7dbb3e941cde2a8f196c3269cb9664736f6c63430008070033",
  "devdoc": {
    "kind": "dev",
    "methods": {},
    "version": 1
  },
  "userdoc": {
    "kind": "user",
    "methods": {},
    "version": 1
  },
  "storageLayout": {
    "storage": [
      {
        "astId": 12,
        "contract": "contracts/BuyMeACoffee.sol:BuyMeACoffee",
        "label": "s_tipsArray",
        "offset": 0,
        "slot": "0",
        "type": "t_array(t_struct(Tip)19_storage)dyn_storage"
      },
      {
        "astId": 14,
        "contract": "contracts/BuyMeACoffee.sol:BuyMeACoffee",
        "label": "s_numberOfTips",
        "offset": 0,
        "slot": "1",
        "type": "t_uint256"
      }
    ],
    "types": {
      "t_array(t_struct(Tip)19_storage)dyn_storage": {
        "base": "t_struct(Tip)19_storage",
        "encoding": "dynamic_array",
        "label": "struct BuyMeACoffee.Tip[]",
        "numberOfBytes": "32"
      },
      "t_string_storage": {
        "encoding": "bytes",
        "label": "string",
        "numberOfBytes": "32"
      },
      "t_struct(Tip)19_storage": {
        "encoding": "inplace",
        "label": "struct BuyMeACoffee.Tip",
        "members": [
          {
            "astId": 16,
            "contract": "contracts/BuyMeACoffee.sol:BuyMeACoffee",
            "label": "tip",
            "offset": 0,
            "slot": "0",
            "type": "t_uint256"
          },
          {
            "astId": 18,
            "contract": "contracts/BuyMeACoffee.sol:BuyMeACoffee",
            "label": "message",
            "offset": 0,
            "slot": "1",
            "type": "t_string_storage"
          }
        ],
        "numberOfBytes": "64"
      },
      "t_uint256": {
        "encoding": "inplace",
        "label": "uint256",
        "numberOfBytes": "32"
      }
    }
  }
}